{
  "contractName": "NFTMarketPlace",
  "abi": [
    {
      "inputs": [],
      "stateMutability": "nonpayable",
      "type": "constructor"
    },
    {
      "anonymous": false,
      "inputs": [
        {
          "indexed": true,
          "internalType": "address",
          "name": "nftContract",
          "type": "address"
        },
        {
          "indexed": true,
          "internalType": "uint256",
          "name": "id",
          "type": "uint256"
        },
        {
          "indexed": false,
          "internalType": "uint256",
          "name": "tokenId",
          "type": "uint256"
        },
        {
          "indexed": false,
          "internalType": "address",
          "name": "creator",
          "type": "address"
        },
        {
          "indexed": false,
          "internalType": "address",
          "name": "seller",
          "type": "address"
        },
        {
          "indexed": false,
          "internalType": "address",
          "name": "owner",
          "type": "address"
        },
        {
          "indexed": false,
          "internalType": "uint256",
          "name": "price",
          "type": "uint256"
        },
        {
          "indexed": false,
          "internalType": "bool",
          "name": "sold",
          "type": "bool"
        },
        {
          "indexed": false,
          "internalType": "address",
          "name": "oldOwner",
          "type": "address"
        },
        {
          "indexed": false,
          "internalType": "address",
          "name": "oldSeller",
          "type": "address"
        },
        {
          "indexed": false,
          "internalType": "uint256",
          "name": "oldPrice",
          "type": "uint256"
        },
        {
          "indexed": false,
          "internalType": "bool",
          "name": "isResell",
          "type": "bool"
        },
        {
          "indexed": false,
          "internalType": "bool",
          "name": "soldFirstTime",
          "type": "bool"
        }
      ],
      "name": "NftMarketItemCreated",
      "type": "event"
    },
    {
      "anonymous": false,
      "inputs": [
        {
          "indexed": true,
          "internalType": "uint256",
          "name": "itemId",
          "type": "uint256"
        }
      ],
      "name": "ProductListed",
      "type": "event"
    },
    {
      "anonymous": false,
      "inputs": [
        {
          "indexed": true,
          "internalType": "uint256",
          "name": "id",
          "type": "uint256"
        },
        {
          "indexed": true,
          "internalType": "address",
          "name": "nftContract",
          "type": "address"
        },
        {
          "indexed": true,
          "internalType": "uint256",
          "name": "tokenId",
          "type": "uint256"
        },
        {
          "indexed": false,
          "internalType": "address",
          "name": "creator",
          "type": "address"
        },
        {
          "indexed": false,
          "internalType": "address",
          "name": "seller",
          "type": "address"
        },
        {
          "indexed": false,
          "internalType": "address",
          "name": "owner",
          "type": "address"
        },
        {
          "indexed": false,
          "internalType": "uint256",
          "name": "price",
          "type": "uint256"
        },
        {
          "indexed": false,
          "internalType": "address",
          "name": "oldOwner",
          "type": "address"
        },
        {
          "indexed": false,
          "internalType": "address",
          "name": "oldSeller",
          "type": "address"
        },
        {
          "indexed": false,
          "internalType": "uint256",
          "name": "oldPrice",
          "type": "uint256"
        },
        {
          "indexed": false,
          "internalType": "bool",
          "name": "isResell",
          "type": "bool"
        },
        {
          "indexed": false,
          "internalType": "bool",
          "name": "soldFirstTime",
          "type": "bool"
        }
      ],
      "name": "ProductSold",
      "type": "event"
    },
    {
      "anonymous": false,
      "inputs": [
        {
          "indexed": true,
          "internalType": "uint256",
          "name": "id",
          "type": "uint256"
        },
        {
          "indexed": true,
          "internalType": "uint256",
          "name": "newPrice",
          "type": "uint256"
        },
        {
          "indexed": false,
          "internalType": "bool",
          "name": "sold",
          "type": "bool"
        },
        {
          "indexed": false,
          "internalType": "address",
          "name": "owner",
          "type": "address"
        },
        {
          "indexed": false,
          "internalType": "address",
          "name": "seller",
          "type": "address"
        },
        {
          "indexed": false,
          "internalType": "bool",
          "name": "soldFirstTime",
          "type": "bool"
        }
      ],
      "name": "ProductUpdated",
      "type": "event"
    },
    {
      "inputs": [
        {
          "internalType": "address",
          "name": "nftContract",
          "type": "address"
        },
        {
          "internalType": "uint256",
          "name": "tokenId",
          "type": "uint256"
        },
        {
          "internalType": "uint256",
          "name": "price",
          "type": "uint256"
        }
      ],
      "name": "createItemForSale",
      "outputs": [],
      "stateMutability": "payable",
      "type": "function",
      "payable": true
    },
    {
      "inputs": [
        {
          "internalType": "address",
          "name": "nftContract",
          "type": "address"
        },
        {
          "internalType": "uint256",
          "name": "nftItemId",
          "type": "uint256"
        }
      ],
      "name": "buyNFt",
      "outputs": [],
      "stateMutability": "payable",
      "type": "function",
      "payable": true
    },
    {
      "inputs": [
        {
          "internalType": "address",
          "name": "nftContract",
          "type": "address"
        },
        {
          "internalType": "uint256",
          "name": "itemId",
          "type": "uint256"
        },
        {
          "internalType": "uint256",
          "name": "newPrice",
          "type": "uint256"
        }
      ],
      "name": "putItemToResell",
      "outputs": [],
      "stateMutability": "payable",
      "type": "function",
      "payable": true
    },
    {
      "inputs": [
        {
          "internalType": "address",
          "name": "nftContract",
          "type": "address"
        },
        {
          "internalType": "uint256",
          "name": "nftItemId",
          "type": "uint256"
        }
      ],
      "name": "cancelResellWitholdPrice",
      "outputs": [],
      "stateMutability": "payable",
      "type": "function",
      "payable": true
    },
    {
      "inputs": [
        {
          "internalType": "uint256",
          "name": "id",
          "type": "uint256"
        }
      ],
      "name": "fetchSingleItem",
      "outputs": [
        {
          "components": [
            {
              "internalType": "address",
              "name": "nftContract",
              "type": "address"
            },
            {
              "internalType": "uint256",
              "name": "id",
              "type": "uint256"
            },
            {
              "internalType": "uint256",
              "name": "tokenId",
              "type": "uint256"
            },
            {
              "internalType": "address payable",
              "name": "creator",
              "type": "address"
            },
            {
              "internalType": "address payable",
              "name": "seller",
              "type": "address"
            },
            {
              "internalType": "address payable",
              "name": "owner",
              "type": "address"
            },
            {
              "internalType": "uint256",
              "name": "price",
              "type": "uint256"
            },
            {
              "internalType": "bool",
              "name": "sold",
              "type": "bool"
            },
            {
              "internalType": "address",
              "name": "oldOwner",
              "type": "address"
            },
            {
              "internalType": "address",
              "name": "oldSeller",
              "type": "address"
            },
            {
              "internalType": "uint256",
              "name": "oldPrice",
              "type": "uint256"
            },
            {
              "internalType": "bool",
              "name": "isResell",
              "type": "bool"
            },
            {
              "internalType": "bool",
              "name": "soldFirstTime",
              "type": "bool"
            }
          ],
          "internalType": "struct NFTMarketPlace.NftMerketItem",
          "name": "",
          "type": "tuple"
        }
      ],
      "stateMutability": "view",
      "type": "function",
      "constant": true
    },
    {
      "inputs": [],
      "name": "getMyItemCreated",
      "outputs": [
        {
          "components": [
            {
              "internalType": "address",
              "name": "nftContract",
              "type": "address"
            },
            {
              "internalType": "uint256",
              "name": "id",
              "type": "uint256"
            },
            {
              "internalType": "uint256",
              "name": "tokenId",
              "type": "uint256"
            },
            {
              "internalType": "address payable",
              "name": "creator",
              "type": "address"
            },
            {
              "internalType": "address payable",
              "name": "seller",
              "type": "address"
            },
            {
              "internalType": "address payable",
              "name": "owner",
              "type": "address"
            },
            {
              "internalType": "uint256",
              "name": "price",
              "type": "uint256"
            },
            {
              "internalType": "bool",
              "name": "sold",
              "type": "bool"
            },
            {
              "internalType": "address",
              "name": "oldOwner",
              "type": "address"
            },
            {
              "internalType": "address",
              "name": "oldSeller",
              "type": "address"
            },
            {
              "internalType": "uint256",
              "name": "oldPrice",
              "type": "uint256"
            },
            {
              "internalType": "bool",
              "name": "isResell",
              "type": "bool"
            },
            {
              "internalType": "bool",
              "name": "soldFirstTime",
              "type": "bool"
            }
          ],
          "internalType": "struct NFTMarketPlace.NftMerketItem[]",
          "name": "",
          "type": "tuple[]"
        }
      ],
      "stateMutability": "view",
      "type": "function",
      "constant": true
    },
    {
      "inputs": [],
      "name": "getMyNFTPurchased",
      "outputs": [
        {
          "components": [
            {
              "internalType": "address",
              "name": "nftContract",
              "type": "address"
            },
            {
              "internalType": "uint256",
              "name": "id",
              "type": "uint256"
            },
            {
              "internalType": "uint256",
              "name": "tokenId",
              "type": "uint256"
            },
            {
              "internalType": "address payable",
              "name": "creator",
              "type": "address"
            },
            {
              "internalType": "address payable",
              "name": "seller",
              "type": "address"
            },
            {
              "internalType": "address payable",
              "name": "owner",
              "type": "address"
            },
            {
              "internalType": "uint256",
              "name": "price",
              "type": "uint256"
            },
            {
              "internalType": "bool",
              "name": "sold",
              "type": "bool"
            },
            {
              "internalType": "address",
              "name": "oldOwner",
              "type": "address"
            },
            {
              "internalType": "address",
              "name": "oldSeller",
              "type": "address"
            },
            {
              "internalType": "uint256",
              "name": "oldPrice",
              "type": "uint256"
            },
            {
              "internalType": "bool",
              "name": "isResell",
              "type": "bool"
            },
            {
              "internalType": "bool",
              "name": "soldFirstTime",
              "type": "bool"
            }
          ],
          "internalType": "struct NFTMarketPlace.NftMerketItem[]",
          "name": "",
          "type": "tuple[]"
        }
      ],
      "stateMutability": "view",
      "type": "function",
      "constant": true
    },
    {
      "inputs": [],
      "name": "getAllUnsoldItems",
      "outputs": [
        {
          "components": [
            {
              "internalType": "address",
              "name": "nftContract",
              "type": "address"
            },
            {
              "internalType": "uint256",
              "name": "id",
              "type": "uint256"
            },
            {
              "internalType": "uint256",
              "name": "tokenId",
              "type": "uint256"
            },
            {
              "internalType": "address payable",
              "name": "creator",
              "type": "address"
            },
            {
              "internalType": "address payable",
              "name": "seller",
              "type": "address"
            },
            {
              "internalType": "address payable",
              "name": "owner",
              "type": "address"
            },
            {
              "internalType": "uint256",
              "name": "price",
              "type": "uint256"
            },
            {
              "internalType": "bool",
              "name": "sold",
              "type": "bool"
            },
            {
              "internalType": "address",
              "name": "oldOwner",
              "type": "address"
            },
            {
              "internalType": "address",
              "name": "oldSeller",
              "type": "address"
            },
            {
              "internalType": "uint256",
              "name": "oldPrice",
              "type": "uint256"
            },
            {
              "internalType": "bool",
              "name": "isResell",
              "type": "bool"
            },
            {
              "internalType": "bool",
              "name": "soldFirstTime",
              "type": "bool"
            }
          ],
          "internalType": "struct NFTMarketPlace.NftMerketItem[]",
          "name": "",
          "type": "tuple[]"
        }
      ],
      "stateMutability": "view",
      "type": "function",
      "constant": true
    },
    {
      "inputs": [],
      "name": "getMyResellItems",
      "outputs": [
        {
          "components": [
            {
              "internalType": "address",
              "name": "nftContract",
              "type": "address"
            },
            {
              "internalType": "uint256",
              "name": "id",
              "type": "uint256"
            },
            {
              "internalType": "uint256",
              "name": "tokenId",
              "type": "uint256"
            },
            {
              "internalType": "address payable",
              "name": "creator",
              "type": "address"
            },
            {
              "internalType": "address payable",
              "name": "seller",
              "type": "address"
            },
            {
              "internalType": "address payable",
              "name": "owner",
              "type": "address"
            },
            {
              "internalType": "uint256",
              "name": "price",
              "type": "uint256"
            },
            {
              "internalType": "bool",
              "name": "sold",
              "type": "bool"
            },
            {
              "internalType": "address",
              "name": "oldOwner",
              "type": "address"
            },
            {
              "internalType": "address",
              "name": "oldSeller",
              "type": "address"
            },
            {
              "internalType": "uint256",
              "name": "oldPrice",
              "type": "uint256"
            },
            {
              "internalType": "bool",
              "name": "isResell",
              "type": "bool"
            },
            {
              "internalType": "bool",
              "name": "soldFirstTime",
              "type": "bool"
            }
          ],
          "internalType": "struct NFTMarketPlace.NftMerketItem[]",
          "name": "",
          "type": "tuple[]"
        }
      ],
      "stateMutability": "view",
      "type": "function",
      "constant": true
    }
  ],
  "bytecode": "0x608060405234801561001057600080fd5b50600160008190555033600160006101000a81548173ffffffffffffffffffffffffffffffffffffffff021916908373ffffffffffffffffffffffffffffffffffffffff1602179055506134a2806100696000396000f3fe6080604052600436106100865760003560e01c8063858c295311610059578063858c2953146101195780639e31e65514610135578063a2bf932a14610160578063a3c320441461019d578063c7a5bc4e146101c857610086565b806325135cbf1461008b578063446269e6146100b657806358271fff146100e1578063670d3437146100fd575b600080fd5b34801561009757600080fd5b506100a06101e4565b6040516100ad9190612ad9565b60405180910390f35b3480156100c257600080fd5b506100cb6105f1565b6040516100d89190612ad9565b60405180910390f35b6100fb60048036038101906100f69190612b58565b610a82565b005b61011760048036038101906101129190612bab565b610f0b565b005b610133600480360381019061012e9190612bab565b6111b7565b005b34801561014157600080fd5b5061014a611556565b6040516101579190612ad9565b60405180910390f35b34801561016c57600080fd5b5061018760048036038101906101829190612beb565b6119e7565b6040516101949190612d23565b60405180910390f35b3480156101a957600080fd5b506101b2611c92565b6040516101bf9190612ad9565b60405180910390f35b6101e260048036038101906101dd9190612b58565b6121a1565b005b606060006101f26002612716565b905060006102006003612716565b61020a6002612716565b6102149190612d6e565b90506000808267ffffffffffffffff81111561023357610232612da2565b5b60405190808252806020026020018201604052801561026c57816020015b610259612796565b8152602001906001900390816102515790505b50905060005b848110156105e657600073ffffffffffffffffffffffffffffffffffffffff16600460006001846102a39190612dd1565b815260200190815260200160002060050160009054906101000a900473ffffffffffffffffffffffffffffffffffffffff1673ffffffffffffffffffffffffffffffffffffffff1614156105d35760006001826103009190612dd1565b9050600060046000838152602001908152602001600020905080604051806101a00160405290816000820160009054906101000a900473ffffffffffffffffffffffffffffffffffffffff1673ffffffffffffffffffffffffffffffffffffffff1673ffffffffffffffffffffffffffffffffffffffff16815260200160018201548152602001600282015481526020016003820160009054906101000a900473ffffffffffffffffffffffffffffffffffffffff1673ffffffffffffffffffffffffffffffffffffffff1673ffffffffffffffffffffffffffffffffffffffff1681526020016004820160009054906101000a900473ffffffffffffffffffffffffffffffffffffffff1673ffffffffffffffffffffffffffffffffffffffff1673ffffffffffffffffffffffffffffffffffffffff1681526020016005820160009054906101000a900473ffffffffffffffffffffffffffffffffffffffff1673ffffffffffffffffffffffffffffffffffffffff1673ffffffffffffffffffffffffffffffffffffffff168152602001600682015481526020016007820160009054906101000a900460ff161515151581526020016007820160019054906101000a900473ffffffffffffffffffffffffffffffffffffffff1673ffffffffffffffffffffffffffffffffffffffff1673ffffffffffffffffffffffffffffffffffffffff1681526020016008820160009054906101000a900473ffffffffffffffffffffffffffffffffffffffff1673ffffffffffffffffffffffffffffffffffffffff1673ffffffffffffffffffffffffffffffffffffffff16815260200160098201548152602001600a820160009054906101000a900460ff16151515158152602001600a820160019054906101000a900460ff1615151515815250508486815181106105b6576105b5612e27565b5b60200260200101819052506001856105ce9190612dd1565b945050505b80806105de90612e56565b915050610272565b508094505050505090565b606060006105ff6002612716565b905060008060005b838110156106a8573373ffffffffffffffffffffffffffffffffffffffff16600460006001846106379190612dd1565b815260200190815260200160002060050160009054906101000a900473ffffffffffffffffffffffffffffffffffffffff1673ffffffffffffffffffffffffffffffffffffffff161415610695576001836106929190612dd1565b92505b80806106a090612e56565b915050610607565b5060008267ffffffffffffffff8111156106c5576106c4612da2565b5b6040519080825280602002602001820160405280156106fe57816020015b6106eb612796565b8152602001906001900390816106e35790505b50905060005b84811015610a77573373ffffffffffffffffffffffffffffffffffffffff16600460006001846107349190612dd1565b815260200190815260200160002060050160009054906101000a900473ffffffffffffffffffffffffffffffffffffffff1673ffffffffffffffffffffffffffffffffffffffff161415610a645760006001826107919190612dd1565b9050600060046000838152602001908152602001600020905080604051806101a00160405290816000820160009054906101000a900473ffffffffffffffffffffffffffffffffffffffff1673ffffffffffffffffffffffffffffffffffffffff1673ffffffffffffffffffffffffffffffffffffffff16815260200160018201548152602001600282015481526020016003820160009054906101000a900473ffffffffffffffffffffffffffffffffffffffff1673ffffffffffffffffffffffffffffffffffffffff1673ffffffffffffffffffffffffffffffffffffffff1681526020016004820160009054906101000a900473ffffffffffffffffffffffffffffffffffffffff1673ffffffffffffffffffffffffffffffffffffffff1673ffffffffffffffffffffffffffffffffffffffff1681526020016005820160009054906101000a900473ffffffffffffffffffffffffffffffffffffffff1673ffffffffffffffffffffffffffffffffffffffff1673ffffffffffffffffffffffffffffffffffffffff168152602001600682015481526020016007820160009054906101000a900460ff161515151581526020016007820160019054906101000a900473ffffffffffffffffffffffffffffffffffffffff1673ffffffffffffffffffffffffffffffffffffffff1673ffffffffffffffffffffffffffffffffffffffff1681526020016008820160009054906101000a900473ffffffffffffffffffffffffffffffffffffffff1673ffffffffffffffffffffffffffffffffffffffff1673ffffffffffffffffffffffffffffffffffffffff16815260200160098201548152602001600a820160009054906101000a900460ff16151515158152602001600a820160019054906101000a900460ff161515151581525050848681518110610a4757610a46612e27565b5b6020026020010181905250600185610a5f9190612dd1565b945050505b8080610a6f90612e56565b915050610704565b508094505050505090565b60026000541415610ac8576040517f08c379a0000000000000000000000000000000000000000000000000000000008152600401610abf90612efc565b60405180910390fd5b6002600081905550813373ffffffffffffffffffffffffffffffffffffffff166004600083815260200190815260200160002060050160009054906101000a900473ffffffffffffffffffffffffffffffffffffffff1673ffffffffffffffffffffffffffffffffffffffff1614610b75576040517f08c379a0000000000000000000000000000000000000000000000000000000008152600401610b6c90612f8e565b60405180910390fd5b60006004600085815260200190815260200160002060020154905060008311610bd3576040517f08c379a0000000000000000000000000000000000000000000000000000000008152600401610bca90612ffa565b60405180910390fd5b60008590508073ffffffffffffffffffffffffffffffffffffffff1663f5537ede3330856040518463ffffffff1660e01b8152600401610c1593929190613038565b600060405180830381600087803b158015610c2f57600080fd5b505af1158015610c43573d6000803e3d6000fd5b5050505060006004600087815260200190815260200160002060050160009054906101000a900473ffffffffffffffffffffffffffffffffffffffff16905060006004600088815260200190815260200160002060040160009054906101000a900473ffffffffffffffffffffffffffffffffffffffff1690506000600460008981526020019081526020016000206006015490506000600460008a815260200190815260200160002060050160006101000a81548173ffffffffffffffffffffffffffffffffffffffff021916908373ffffffffffffffffffffffffffffffffffffffff16021790555082600460008a815260200190815260200160002060040160006101000a81548173ffffffffffffffffffffffffffffffffffffffff021916908373ffffffffffffffffffffffffffffffffffffffff16021790555086600460008a8152602001908152602001600020600601819055506000600460008a815260200190815260200160002060070160006101000a81548160ff0219169083151502179055506000600460008a8152602001908152602001600020600a0160006101000a81548160ff02191690831515021790555082600460008a815260200190815260200160002060070160016101000a81548173ffffffffffffffffffffffffffffffffffffffff021916908373ffffffffffffffffffffffffffffffffffffffff16021790555081600460008a815260200190815260200160002060080160006101000a81548173ffffffffffffffffffffffffffffffffffffffff021916908373ffffffffffffffffffffffffffffffffffffffff16021790555080600460008a815260200190815260200160002060090181905550610ecb6003612724565b877f221866c21613d6f0d77d42f9309b122a25deed1bc186cff9c2f1ddafc52c34f660405160405180910390a25050505050506001600081905550505050565b60026000541415610f51576040517f08c379a0000000000000000000000000000000000000000000000000000000008152600401610f4890612efc565b60405180910390fd5b6002600081905550600060046000838152602001908152602001600020600601549050600060046000848152602001908152602001600020600201549050813414610fd1576040517f08c379a0000000000000000000000000000000000000000000000000000000008152600401610fc8906130bb565b60405180910390fd5b6004600084815260200190815260200160002060040160009054906101000a900473ffffffffffffffffffffffffffffffffffffffff1673ffffffffffffffffffffffffffffffffffffffff166108fc349081150290604051600060405180830381858888f1935050505015801561104d573d6000803e3d6000fd5b508373ffffffffffffffffffffffffffffffffffffffff166323b872dd3033846040518463ffffffff1660e01b815260040161108b93929190613038565b600060405180830381600087803b1580156110a557600080fd5b505af11580156110b9573d6000803e3d6000fd5b50505050336004600085815260200190815260200160002060050160006101000a81548173ffffffffffffffffffffffffffffffffffffffff021916908373ffffffffffffffffffffffffffffffffffffffff16021790555060016004600085815260200190815260200160002060070160006101000a81548160ff021916908315150217905550600160046000858152602001908152602001600020600a0160006101000a81548160ff021916908315150217905550600160046000858152602001908152602001600020600a0160016101000a81548160ff0219169083151502179055506111a96003612780565b505060016000819055505050565b600260005414156111fd576040517f08c379a00000000000000000000000000000000000000000000000000000000081526004016111f490612efc565b60405180910390fd5b60026000819055506000600460008381526020019081526020016000206009015490506000600460008481526020019081526020016000206002015490508373ffffffffffffffffffffffffffffffffffffffff166323b872dd3033846040518463ffffffff1660e01b815260040161127893929190613038565b600060405180830381600087803b15801561129257600080fd5b505af11580156112a6573d6000803e3d6000fd5b50505050336004600085815260200190815260200160002060050160006101000a81548173ffffffffffffffffffffffffffffffffffffffff021916908373ffffffffffffffffffffffffffffffffffffffff1602179055508160046000858152602001908152602001600020600601819055506004600084815260200190815260200160002060080160009054906101000a900473ffffffffffffffffffffffffffffffffffffffff166004600085815260200190815260200160002060040160006101000a81548173ffffffffffffffffffffffffffffffffffffffff021916908373ffffffffffffffffffffffffffffffffffffffff16021790555060016004600085815260200190815260200160002060070160006101000a81548160ff0219169083151502179055506113de6003612780565b60046000848152602001908152602001600020600201546004600085815260200190815260200160002060000160009054906101000a900473ffffffffffffffffffffffffffffffffffffffff1673ffffffffffffffffffffffffffffffffffffffff1660046000868152602001908152602001600020600101547f944dd0af3aadc440ffe9bdcc594167b91c13e697182731c20c5d5e0aba1fa0586004600088815260200190815260200160002060030160009054906101000a900473ffffffffffffffffffffffffffffffffffffffff166004600089815260200190815260200160002060040160009054906101000a900473ffffffffffffffffffffffffffffffffffffffff1633600460008b8152602001908152602001600020600601546000806000600460008f8152602001908152602001600020600a0160009054906101000a900460ff16600160405161154099989796959493929190613184565b60405180910390a4505060016000819055505050565b606060006115646002612716565b905060008060005b8381101561160d573373ffffffffffffffffffffffffffffffffffffffff166004600060018461159c9190612dd1565b815260200190815260200160002060040160009054906101000a900473ffffffffffffffffffffffffffffffffffffffff1673ffffffffffffffffffffffffffffffffffffffff1614156115fa576001836115f79190612dd1565b92505b808061160590612e56565b91505061156c565b5060008267ffffffffffffffff81111561162a57611629612da2565b5b60405190808252806020026020018201604052801561166357816020015b611650612796565b8152602001906001900390816116485790505b50905060005b848110156119dc573373ffffffffffffffffffffffffffffffffffffffff16600460006001846116999190612dd1565b815260200190815260200160002060040160009054906101000a900473ffffffffffffffffffffffffffffffffffffffff1673ffffffffffffffffffffffffffffffffffffffff1614156119c95760006001826116f69190612dd1565b9050600060046000838152602001908152602001600020905080604051806101a00160405290816000820160009054906101000a900473ffffffffffffffffffffffffffffffffffffffff1673ffffffffffffffffffffffffffffffffffffffff1673ffffffffffffffffffffffffffffffffffffffff16815260200160018201548152602001600282015481526020016003820160009054906101000a900473ffffffffffffffffffffffffffffffffffffffff1673ffffffffffffffffffffffffffffffffffffffff1673ffffffffffffffffffffffffffffffffffffffff1681526020016004820160009054906101000a900473ffffffffffffffffffffffffffffffffffffffff1673ffffffffffffffffffffffffffffffffffffffff1673ffffffffffffffffffffffffffffffffffffffff1681526020016005820160009054906101000a900473ffffffffffffffffffffffffffffffffffffffff1673ffffffffffffffffffffffffffffffffffffffff1673ffffffffffffffffffffffffffffffffffffffff168152602001600682015481526020016007820160009054906101000a900460ff161515151581526020016007820160019054906101000a900473ffffffffffffffffffffffffffffffffffffffff1673ffffffffffffffffffffffffffffffffffffffff1673ffffffffffffffffffffffffffffffffffffffff1681526020016008820160009054906101000a900473ffffffffffffffffffffffffffffffffffffffff1673ffffffffffffffffffffffffffffffffffffffff1673ffffffffffffffffffffffffffffffffffffffff16815260200160098201548152602001600a820160009054906101000a900460ff16151515158152602001600a820160019054906101000a900460ff1615151515815250508486815181106119ac576119ab612e27565b5b60200260200101819052506001856119c49190612dd1565b945050505b80806119d490612e56565b915050611669565b508094505050505090565b6119ef612796565b60046000838152602001908152602001600020604051806101a00160405290816000820160009054906101000a900473ffffffffffffffffffffffffffffffffffffffff1673ffffffffffffffffffffffffffffffffffffffff1673ffffffffffffffffffffffffffffffffffffffff16815260200160018201548152602001600282015481526020016003820160009054906101000a900473ffffffffffffffffffffffffffffffffffffffff1673ffffffffffffffffffffffffffffffffffffffff1673ffffffffffffffffffffffffffffffffffffffff1681526020016004820160009054906101000a900473ffffffffffffffffffffffffffffffffffffffff1673ffffffffffffffffffffffffffffffffffffffff1673ffffffffffffffffffffffffffffffffffffffff1681526020016005820160009054906101000a900473ffffffffffffffffffffffffffffffffffffffff1673ffffffffffffffffffffffffffffffffffffffff1673ffffffffffffffffffffffffffffffffffffffff168152602001600682015481526020016007820160009054906101000a900460ff161515151581526020016007820160019054906101000a900473ffffffffffffffffffffffffffffffffffffffff1673ffffffffffffffffffffffffffffffffffffffff1673ffffffffffffffffffffffffffffffffffffffff1681526020016008820160009054906101000a900473ffffffffffffffffffffffffffffffffffffffff1673ffffffffffffffffffffffffffffffffffffffff1673ffffffffffffffffffffffffffffffffffffffff16815260200160098201548152602001600a820160009054906101000a900460ff16151515158152602001600a820160019054906101000a900460ff1615151515815250509050919050565b60606000611ca06002612716565b905060008060005b83811015611d88573373ffffffffffffffffffffffffffffffffffffffff1660046000600184611cd89190612dd1565b815260200190815260200160002060040160009054906101000a900473ffffffffffffffffffffffffffffffffffffffff1673ffffffffffffffffffffffffffffffffffffffff16148015611d6057506000151560046000600184611d3d9190612dd1565b815260200190815260200160002060070160009054906101000a900460ff161515145b15611d7557600183611d729190612dd1565b92505b8080611d8090612e56565b915050611ca8565b5060008267ffffffffffffffff811115611da557611da4612da2565b5b604051908082528060200260200182016040528015611dde57816020015b611dcb612796565b815260200190600190039081611dc35790505b50905060005b84811015612196573373ffffffffffffffffffffffffffffffffffffffff1660046000600184611e149190612dd1565b815260200190815260200160002060040160009054906101000a900473ffffffffffffffffffffffffffffffffffffffff1673ffffffffffffffffffffffffffffffffffffffff16148015611e9c57506000151560046000600184611e799190612dd1565b815260200190815260200160002060070160009054906101000a900460ff161515145b15612183576000600182611eb09190612dd1565b9050600060046000838152602001908152602001600020905080604051806101a00160405290816000820160009054906101000a900473ffffffffffffffffffffffffffffffffffffffff1673ffffffffffffffffffffffffffffffffffffffff1673ffffffffffffffffffffffffffffffffffffffff16815260200160018201548152602001600282015481526020016003820160009054906101000a900473ffffffffffffffffffffffffffffffffffffffff1673ffffffffffffffffffffffffffffffffffffffff1673ffffffffffffffffffffffffffffffffffffffff1681526020016004820160009054906101000a900473ffffffffffffffffffffffffffffffffffffffff1673ffffffffffffffffffffffffffffffffffffffff1673ffffffffffffffffffffffffffffffffffffffff1681526020016005820160009054906101000a900473ffffffffffffffffffffffffffffffffffffffff1673ffffffffffffffffffffffffffffffffffffffff1673ffffffffffffffffffffffffffffffffffffffff168152602001600682015481526020016007820160009054906101000a900460ff161515151581526020016007820160019054906101000a900473ffffffffffffffffffffffffffffffffffffffff1673ffffffffffffffffffffffffffffffffffffffff1673ffffffffffffffffffffffffffffffffffffffff1681526020016008820160009054906101000a900473ffffffffffffffffffffffffffffffffffffffff1673ffffffffffffffffffffffffffffffffffffffff1673ffffffffffffffffffffffffffffffffffffffff16815260200160098201548152602001600a820160009054906101000a900460ff16151515158152602001600a820160019054906101000a900460ff16151515158152505084868151811061216657612165612e27565b5b602002602001018190525060018561217e9190612dd1565b945050505b808061218e90612e56565b915050611de4565b508094505050505090565b600260005414156121e7576040517f08c379a00000000000000000000000000000000000000000000000000000000081526004016121de90612efc565b60405180910390fd5b600260008190555060008111612232576040517f08c379a00000000000000000000000000000000000000000000000000000000081526004016122299061325d565b60405180910390fd5b60008211612275576040517f08c379a000000000000000000000000000000000000000000000000000000000815260040161226c906132c9565b60405180910390fd5b600073ffffffffffffffffffffffffffffffffffffffff168373ffffffffffffffffffffffffffffffffffffffff1614156122e5576040517f08c379a00000000000000000000000000000000000000000000000000000000081526004016122dc90613335565b60405180910390fd5b6122ef6002612780565b60006122fb6002612716565b9050604051806101a001604052808573ffffffffffffffffffffffffffffffffffffffff1681526020018281526020018481526020013373ffffffffffffffffffffffffffffffffffffffff1681526020013373ffffffffffffffffffffffffffffffffffffffff168152602001600073ffffffffffffffffffffffffffffffffffffffff168152602001838152602001600015158152602001600073ffffffffffffffffffffffffffffffffffffffff168152602001600073ffffffffffffffffffffffffffffffffffffffff168152602001838152602001600015158152602001600015158152506004600083815260200190815260200160002060008201518160000160006101000a81548173ffffffffffffffffffffffffffffffffffffffff021916908373ffffffffffffffffffffffffffffffffffffffff160217905550602082015181600101556040820151816002015560608201518160030160006101000a81548173ffffffffffffffffffffffffffffffffffffffff021916908373ffffffffffffffffffffffffffffffffffffffff16021790555060808201518160040160006101000a81548173ffffffffffffffffffffffffffffffffffffffff021916908373ffffffffffffffffffffffffffffffffffffffff16021790555060a08201518160050160006101000a81548173ffffffffffffffffffffffffffffffffffffffff021916908373ffffffffffffffffffffffffffffffffffffffff16021790555060c0820151816006015560e08201518160070160006101000a81548160ff0219169083151502179055506101008201518160070160016101000a81548173ffffffffffffffffffffffffffffffffffffffff021916908373ffffffffffffffffffffffffffffffffffffffff1602179055506101208201518160080160006101000a81548173ffffffffffffffffffffffffffffffffffffffff021916908373ffffffffffffffffffffffffffffffffffffffff160217905550610140820151816009015561016082015181600a0160006101000a81548160ff02191690831515021790555061018082015181600a0160016101000a81548160ff0219169083151502179055509050508373ffffffffffffffffffffffffffffffffffffffff166323b872dd3330866040518463ffffffff1660e01b815260040161266f93929190613038565b600060405180830381600087803b15801561268957600080fd5b505af115801561269d573d6000803e3d6000fd5b50505050808473ffffffffffffffffffffffffffffffffffffffff167f5d30be9631a749aedd45b8ea092336081aa65a429014293010081e8c385da3a385333360008860008060008c6000806040516127009b9a99989796959493929190613355565b60405180910390a3506001600081905550505050565b600081600001549050919050565b60008160000154905060008111612770576040517f08c379a00000000000000000000000000000000000000000000000000000000081526004016127679061344c565b60405180910390fd5b6001810382600001819055505050565b6001816000016000828254019250508190555050565b604051806101a00160405280600073ffffffffffffffffffffffffffffffffffffffff1681526020016000815260200160008152602001600073ffffffffffffffffffffffffffffffffffffffff168152602001600073ffffffffffffffffffffffffffffffffffffffff168152602001600073ffffffffffffffffffffffffffffffffffffffff16815260200160008152602001600015158152602001600073ffffffffffffffffffffffffffffffffffffffff168152602001600073ffffffffffffffffffffffffffffffffffffffff168152602001600081526020016000151581526020016000151581525090565b600081519050919050565b600082825260208201905092915050565b6000819050602082019050919050565b600073ffffffffffffffffffffffffffffffffffffffff82169050919050565b60006128df826128b4565b9050919050565b6128ef816128d4565b82525050565b6000819050919050565b612908816128f5565b82525050565b6000612919826128b4565b9050919050565b6129298161290e565b82525050565b60008115159050919050565b6129448161292f565b82525050565b6101a08201600082015161296160008501826128e6565b50602082015161297460208501826128ff565b50604082015161298760408501826128ff565b50606082015161299a6060850182612920565b5060808201516129ad6080850182612920565b5060a08201516129c060a0850182612920565b5060c08201516129d360c08501826128ff565b5060e08201516129e660e085018261293b565b506101008201516129fb6101008501826128e6565b50610120820151612a106101208501826128e6565b50610140820151612a256101408501826128ff565b50610160820151612a3a61016085018261293b565b50610180820151612a4f61018085018261293b565b50505050565b6000612a61838361294a565b6101a08301905092915050565b6000602082019050919050565b6000612a8682612888565b612a908185612893565b9350612a9b836128a4565b8060005b83811015612acc578151612ab38882612a55565b9750612abe83612a6e565b925050600181019050612a9f565b5085935050505092915050565b60006020820190508181036000830152612af38184612a7b565b905092915050565b600080fd5b612b09816128d4565b8114612b1457600080fd5b50565b600081359050612b2681612b00565b92915050565b612b35816128f5565b8114612b4057600080fd5b50565b600081359050612b5281612b2c565b92915050565b600080600060608486031215612b7157612b70612afb565b5b6000612b7f86828701612b17565b9350506020612b9086828701612b43565b9250506040612ba186828701612b43565b9150509250925092565b60008060408385031215612bc257612bc1612afb565b5b6000612bd085828601612b17565b9250506020612be185828601612b43565b9150509250929050565b600060208284031215612c0157612c00612afb565b5b6000612c0f84828501612b43565b91505092915050565b6101a082016000820151612c2f60008501826128e6565b506020820151612c4260208501826128ff565b506040820151612c5560408501826128ff565b506060820151612c686060850182612920565b506080820151612c7b6080850182612920565b5060a0820151612c8e60a0850182612920565b5060c0820151612ca160c08501826128ff565b5060e0820151612cb460e085018261293b565b50610100820151612cc96101008501826128e6565b50610120820151612cde6101208501826128e6565b50610140820151612cf36101408501826128ff565b50610160820151612d0861016085018261293b565b50610180820151612d1d61018085018261293b565b50505050565b60006101a082019050612d396000830184612c18565b92915050565b7f4e487b7100000000000000000000000000000000000000000000000000000000600052601160045260246000fd5b6000612d79826128f5565b9150612d84836128f5565b925082821015612d9757612d96612d3f565b5b828203905092915050565b7f4e487b7100000000000000000000000000000000000000000000000000000000600052604160045260246000fd5b6000612ddc826128f5565b9150612de7836128f5565b9250827fffffffffffffffffffffffffffffffffffffffffffffffffffffffffffffffff03821115612e1c57612e1b612d3f565b5b828201905092915050565b7f4e487b7100000000000000000000000000000000000000000000000000000000600052603260045260246000fd5b6000612e61826128f5565b91507fffffffffffffffffffffffffffffffffffffffffffffffffffffffffffffffff821415612e9457612e93612d3f565b5b600182019050919050565b600082825260208201905092915050565b7f5265656e7472616e637947756172643a207265656e7472616e742063616c6c00600082015250565b6000612ee6601f83612e9f565b9150612ef182612eb0565b602082019050919050565b60006020820190508181036000830152612f1581612ed9565b9050919050565b7f4f6e6c792070726f64756374206f776e65722063616e20646f2074686973206f60008201527f7065726174696f6e000000000000000000000000000000000000000000000000602082015250565b6000612f78602883612e9f565b9150612f8382612f1c565b604082019050919050565b60006020820190508181036000830152612fa781612f6b565b9050919050565b7f5072696365206d757374206265206174206c6561737420312077656900000000600082015250565b6000612fe4601c83612e9f565b9150612fef82612fae565b602082019050919050565b6000602082019050818103600083015261301381612fd7565b9050919050565b613023816128d4565b82525050565b613032816128f5565b82525050565b600060608201905061304d600083018661301a565b61305a602083018561301a565b6130676040830184613029565b949350505050565b7f73686f756c642062757920746865207072696365206f66206974656d00000000600082015250565b60006130a5601c83612e9f565b91506130b08261306f565b602082019050919050565b600060208201905081810360008301526130d481613098565b9050919050565b6000819050919050565b60006131006130fb6130f6846128b4565b6130db565b6128b4565b9050919050565b6000613112826130e5565b9050919050565b600061312482613107565b9050919050565b61313481613119565b82525050565b6000819050919050565b600061315f61315a6131558461313a565b6130db565b6128f5565b9050919050565b61316f81613144565b82525050565b61317e8161292f565b82525050565b60006101208201905061319a600083018c61312b565b6131a7602083018b61312b565b6131b4604083018a61312b565b6131c16060830189613029565b6131ce608083018861301a565b6131db60a083018761301a565b6131e860c0830186613166565b6131f560e0830185613175565b613203610100830184613175565b9a9950505050505050505050565b7f50726963652073686f756c64206265206d6f72655468616e2031000000000000600082015250565b6000613247601a83612e9f565b915061325282613211565b602082019050919050565b600060208201905081810360008301526132768161323a565b9050919050565b7f746f6b656e2049642073686f756c64206265206d6f72655468616e2031000000600082015250565b60006132b3601d83612e9f565b91506132be8261327d565b602082019050919050565b600060208201905081810360008301526132e2816132a6565b9050919050565b7f616464726573732073686f756c64206e6f7420626520657175616c2030783000600082015250565b600061331f601f83612e9f565b915061332a826132e9565b602082019050919050565b6000602082019050818103600083015261334e81613312565b9050919050565b60006101608201905061336b600083018e613029565b613378602083018d61301a565b613385604083018c61301a565b613392606083018b61301a565b61339f608083018a613029565b6133ac60a0830189613175565b6133b960c083018861301a565b6133c660e083018761301a565b6133d4610100830186613029565b6133e2610120830185613175565b6133f0610140830184613175565b9c9b505050505050505050505050565b7f436f756e7465723a2064656372656d656e74206f766572666c6f770000000000600082015250565b6000613436601b83612e9f565b915061344182613400565b602082019050919050565b6000602082019050818103600083015261346581613429565b905091905056fea26469706673582212200c254c4fa30eea589fed08356dff242743e7f1b1cbf8a519215b9018af9820fc64736f6c634300080a0033",
  "immutableReferences": {},
  "source": "// SPDX-License-Identifier: MIT\npragma solidity >=0.4.22 <0.9.0;\nimport \"@openzeppelin/contracts/utils/Counters.sol\";\nimport \"@openzeppelin/contracts/token/ERC721/ERC721.sol\";\nimport \"@openzeppelin/contracts/security/ReentrancyGuard.sol\";\n\nimport \"./NFT.sol\";\n\n\ncontract NFTMarketPlace is ReentrancyGuard {\n\n    address payable owner;\n\n      using Counters for Counters.Counter;\n     Counters.Counter private itemId;\n    Counters.Counter private itemsSold;\n\n     constructor(){\n         owner = payable(msg.sender);\n     }\n\n    struct NftMerketItem{\n              address nftContract;\n        uint256 id;\n        uint256 tokenId;\n          //=>\n        address payable creator;\n        address  payable seller;\n       address payable owner;\n\n        uint256 price;\n        bool sold;\n        address oldOwner;\n        address oldSeller;\n\n        uint256 oldPrice;\n        bool isResell;\n\n               bool soldFirstTime;\n\n\n    }\n\n        event NftMarketItemCreated(\n        address  indexed nftContract,\n        uint256 indexed id,\n        uint256 tokenId,\n       \n        //=>\n         address  creator,\n\n        address  seller,\n         address  owner,\n        uint256 price,\n        bool sold,\n        address oldOwner,\n         address oldSeller,\n\n        uint256 oldPrice,\n       bool isResell,\n                      bool soldFirstTime\n        );\n     //=>\n     event ProductUpdated(\n      uint256 indexed id,\n      uint256 indexed newPrice,\n       bool sold,\n        address  owner,\n         address  seller,\n                               bool soldFirstTime\n\n    );\n      //=>\n\n      //=>\n    event ProductSold(\n        uint256 indexed id,\n        address indexed nftContract,\n        uint256 indexed tokenId,\n        address creator,\n        address seller,\n        address owner,\n        uint256 price,\n        address oldOwner,\n        address oldSeller,\n        uint256 oldPrice,\n        bool isResell,\n                              bool soldFirstTime\n\n    );\n    //==>\n           event ProductListed(\n        uint256 indexed itemId\n    );\n       ///=>\n        modifier onlyProductOrMarketPlaceOwner(uint256 id) {\n        if (idForMarketItem[id].owner != address(0)) {\n            require(idForMarketItem[id].owner == msg.sender);\n        } else {\n            require(\n                idForMarketItem[id].seller == msg.sender || msg.sender == owner\n            );\n        }\n        _;\n    }\n\n    modifier onlyProductSeller(uint256 id) {\n        require(\n            idForMarketItem[id].owner == address(0) &&\n                idForMarketItem[id].seller == msg.sender, \"Only the product can do this operation\"\n        );\n        _;\n    }\n\n    modifier onlyItemOwner(uint256 id) {\n        require(\n            idForMarketItem[id].owner == msg.sender,\n            \"Only product owner can do this operation\"\n        );\n        _;\n    }\n\n      modifier onlyItemOldOwner(uint256 id) {\n        require(\n            idForMarketItem[id].oldOwner == msg.sender,\n            \"Only product Old owner can do this operation\"\n        );\n        _;\n    }\n\n\n///////////////////////////////////\n     mapping(uint256=>NftMerketItem) private idForMarketItem;\n///////////////////////////////////\n    function createItemForSale(address nftContract,uint256 tokenId,uint256 price)public payable nonReentrant {\n        require(price >0,\"Price should be moreThan 1\");\n        require(tokenId >0,\"token Id should be moreThan 1\");\n\n        require(nftContract != address(0),\"address should not be equal 0x0\");\n        itemId.increment();\n        uint256 id = itemId.current();\n\n        idForMarketItem[id]= NftMerketItem(\n              nftContract,\n            id,\n            tokenId,\n            payable(msg.sender),\n            payable(msg.sender),\n            payable (address (0)),\n            price,\n            false,\n            payable(address(0)),\n            payable(address(0)),\n            price,\n            false,\n            false\n        );\n\n        IERC721(nftContract).transferFrom(msg.sender, address(this), tokenId);\n        emit NftMarketItemCreated(nftContract, id, tokenId,  msg.sender, msg.sender,address(0), price, false,address(0),address(0),price,false,false);\n\n    }\n    //Buy nft\n\n    function buyNFt(address nftContract,uint256 nftItemId) public payable nonReentrant {\n     uint256 price = idForMarketItem[nftItemId].price;\n     uint256 tokenId = idForMarketItem[nftItemId].tokenId;\n\n     require(msg.value == price,\"should buy the price of item\");\n     idForMarketItem[nftItemId].seller.transfer(msg.value);\n        \n\n\n      IERC721(nftContract).transferFrom(address(this), msg.sender, tokenId); //buy\n      idForMarketItem[nftItemId].owner = payable(msg.sender);\n      idForMarketItem[nftItemId].sold =  true;\n        idForMarketItem[nftItemId].isResell =  true;\n            idForMarketItem[nftItemId].soldFirstTime =  true;\n\n\n      itemsSold.increment();\n\n\n         \n    }\n     //REsell\n\n     function putItemToResell(address nftContract, uint256 itemId, uint256 newPrice)\n        public\n        payable\n        nonReentrant\n        onlyItemOwner(itemId)\n    {\n        uint256 tokenId = idForMarketItem[itemId].tokenId;\n        require(newPrice > 0, \"Price must be at least 1 wei\");\n\n\n        NFT tokenContract = NFT(nftContract);\n\n        tokenContract.transferToken(msg.sender, address(this), tokenId);\n\n        address payable oldOwner = idForMarketItem[itemId].owner;\n          address payable oldSeller = idForMarketItem[itemId].seller;\n\n        uint256 oldPrice = idForMarketItem[itemId].price;\n\n        idForMarketItem[itemId].owner = payable(address(0));\n        idForMarketItem[itemId].seller = oldOwner;\n        idForMarketItem[itemId].price = newPrice;\n        idForMarketItem[itemId].sold = false;\n        idForMarketItem[itemId].isResell = false;\n\n        //Start to save old value\n        idForMarketItem[itemId].oldOwner = oldOwner;\n        idForMarketItem[itemId].oldSeller = oldSeller;\n         idForMarketItem[itemId].oldPrice = oldPrice;\n        \n     itemsSold.decrement();\n          emit ProductListed(itemId);\n\n    }\n\n//TO DO Send when cancel fees to Owner\n        function cancelResellWitholdPrice(address nftContract,uint256 nftItemId) public  payable nonReentrant {\n    uint256 price = idForMarketItem[nftItemId].oldPrice;\n     uint256 tokenId = idForMarketItem[nftItemId].tokenId;\n\n\n\n     //require(msg.value == price,\"should buy the price of item\");\n    //idForMarketItem[nftItemId].seller.transfer(msg.value);\n    //  address sellerAddress = idForMarketItem[nftItemId].seller;\n      IERC721(nftContract).transferFrom(address(this), msg.sender, tokenId); //buy\n      idForMarketItem[nftItemId].owner = payable(msg.sender);\n      idForMarketItem[nftItemId].price = price;\n       idForMarketItem[nftItemId].seller = payable(idForMarketItem[nftItemId].oldSeller);\n      idForMarketItem[nftItemId].sold =  true;\n      itemsSold.increment();\n\n           emit ProductSold(\n            idForMarketItem[nftItemId].id,\n            idForMarketItem[nftItemId].nftContract,\n            idForMarketItem[nftItemId].tokenId,\n            idForMarketItem[nftItemId].creator,\n            idForMarketItem[nftItemId].seller,\n            payable(msg.sender),\n            idForMarketItem[nftItemId].price,\n            address(0),\n            address(0),\n            0,\n            idForMarketItem[nftItemId].isResell ,\n            true\n        );\n\n    }\n\n    ///FETCH SINGLE NFT\n  function fetchSingleItem(uint256 id) public view returns (NftMerketItem memory)\n       \n    {\n        return idForMarketItem[id];\n    }\n    //=>Update Item =>We Dont Use This\n\n    \n\n\n\nfunction getMyItemCreated() public view returns(NftMerketItem[] memory){\nuint256 totalItemCount = itemId.current(); \nuint myItemCount=0;//10\nuint myCurrentIndex =0;\n\nfor(uint i = 0;i<totalItemCount;i++){\n    if(idForMarketItem[i+1].seller == msg.sender){\n        myItemCount+=1;\n\n    }\n}\nNftMerketItem [] memory nftItems = new NftMerketItem[](myItemCount); //list[3]\nfor(uint i = 0;i<totalItemCount;i++){\n    if(idForMarketItem[i+1].seller==msg.sender){      //[1,2,3,4,5]\n      uint currentId = i+1;\n        NftMerketItem storage  currentItem = idForMarketItem[currentId];\n        nftItems[myCurrentIndex] = currentItem;\n        myCurrentIndex +=1;\n        \n    }\n}\n\n\nreturn nftItems;\n\n}\n\n\n//Create My purchased Nft Item\n\nfunction getMyNFTPurchased() public view returns(NftMerketItem[] memory){\nuint256 totalItemCount = itemId.current(); \nuint myItemCount=0;//10\nuint myCurrentIndex =0;\n\nfor(uint i = 0;i<totalItemCount;i++){\n    if(idForMarketItem[i + 1 ].owner == msg.sender){\n        myItemCount+=1;\n\n    }\n}\n\nNftMerketItem [] memory nftItems = new NftMerketItem[](myItemCount); //list[3]\nfor(uint i = 0;i<totalItemCount;i++){\n    if(idForMarketItem[i+1].owner== msg.sender){      //[1,2,3,4,5]\n      uint currentId = i+1;\n        NftMerketItem storage  currentItem = idForMarketItem[currentId];\n        nftItems[myCurrentIndex] = currentItem;\n        myCurrentIndex +=1;\n        \n    }\n}\n\n\nreturn nftItems;\n\n}\n//Fetch  all unsold nft items\nfunction getAllUnsoldItems()public view returns (NftMerketItem[] memory){\n\nuint256 totalItemCount = itemId.current(); \nuint myItemCount= itemId.current() - itemsSold.current();\nuint myCurrentIndex =0;\n\n\n\nNftMerketItem [] memory nftItems = new NftMerketItem[](myItemCount); //list[3]\nfor(uint i = 0;i<totalItemCount;i++){\n    if(idForMarketItem[i+1].owner== address(0)){      //[1,2,3,4,5]\n      uint currentId = i+1;\n        NftMerketItem storage  currentItem = idForMarketItem[currentId];\n        nftItems[myCurrentIndex] = currentItem;\n        myCurrentIndex +=1;\n        \n    }\n}\n\n\nreturn nftItems;\n\n\n}\n\n\n//Get resell my items\n\nfunction getMyResellItems() public view returns(NftMerketItem[] memory){\nuint256 totalItemCount = itemId.current(); \nuint myItemCount=0;//10\nuint myCurrentIndex =0;\n\nfor(uint i = 0;i<totalItemCount;i++){\n    if((idForMarketItem[i + 1 ].seller == msg.sender)&&(idForMarketItem[i + 1 ].sold == false)){\n        myItemCount+=1;\n\n    }\n}\n\nNftMerketItem [] memory nftItems = new NftMerketItem[](myItemCount); //list[3]\nfor(uint i = 0;i<totalItemCount;i++){\n    if((idForMarketItem[i + 1 ].seller == msg.sender)&&(idForMarketItem[i + 1 ].sold == false)){      //[1,2,3,4,5]\n      uint currentId = i+1;\n        NftMerketItem storage  currentItem = idForMarketItem[currentId];\n        nftItems[myCurrentIndex] = currentItem;\n        myCurrentIndex +=1;\n        \n    }\n}\n\n\nreturn nftItems;\n\n}\n}",
  "sourcePath": "/Users/mrbebo/Documents/GitHub/China_lady/contracts/NFTMarketPlace.sol",
  "compiler": {
    "name": "solc",
    "version": "0.8.10+commit.fc410830.Emscripten.clang"
  },
  "schemaVersion": "3.4.3",
  "updatedAt": "2023-05-15T15:08:21.968Z",
  "networkType": "ethereum",
  "devdoc": {
    "kind": "dev",
    "methods": {},
    "version": 1
  },
  "userdoc": {
    "kind": "user",
    "methods": {
      "fetchSingleItem(uint256)": {
        "notice": "FETCH SINGLE NFT"
      }
    },
    "version": 1
  }
}